:10800000A5E5E0A523FF000000000000000000003F
:10801000000000000000000000000000FFFFFFFF64
:0E80200041737369676E6D656E74325632007F
:04200B00128073329A
:1080400090F8037480F0D2AFD2A9758901758C3D88
:10805000758ADC79017A017C017E017F01D28C78FE
:1080600020D2900000D8FE7820C290D8FE80F00187
:10807000E62108758C3D758ADCD923DC2CDA44DFD7
:10808000EEDEEE740075F00290F800F090F801F06A
:1080900079097C067A137B017E087F07212675F01B
:1080A00002A40490F800F0807D790175F002A40428
:1080B000ADF0BD010890F8017401F0806990F801FD
:1080C000F0806379017C01758C94758A30DB57757B
:1080D0008C3D758ADC7B0290F800E0F490F800F0AB
:1080E00090F801F0804079017C017A01B4000E74AF
:1080F000FF90F800F0741F90F801F080291475F0DB
:10810000028490F801F0801E79017C017A017F01E0
:108110001475F00284B4000890F800747FF08006B3
:0781200090F800F08000223E
:00000001FF
