:10800000A5E5E0A523FF000000000000000000003F
:10801000000000000000000000000000FFFFFFFF64
:0E80200041737369676E6D656E74325633007E
:04200B00128073329A
:1080400090F8037480F0D2AFD2A9758901758C3D88
:10805000758ADC79017A017C017E017F01D28C78FE
:1080600020D2900000D8FE7820C290D8FE80F00187
:10807000F42119758C3D758ADCD91FDC44DA53DF95
:10808000EEDEEE740090F800F090F801F079067CD6
:10809000037A137B017F047E0522B9050A75F0027D
:1080A000A40490F800F02275F002A40475F002A474
:1080B0000490F800F0ADF0BD010690F8017401F0F5
:1080C00022790175F002A40475F002A40490F8016D
:1080D000F02279017C01758C94758A30DB62758C95
:1080E0003D758ADC7B0290F800E0F490F800F09097
:1080F000F801F02279017C017A01B4000D74FF903F
:10810000F800F0741F90F801F0221475F002841446
:1081100075F0028490F801F02279017C017A017FE8
:10812000011475F00284B4000D90F8017400F09011
:10813000F800747FF0221475F0028490F800F022A9
:01814000221C
:00000001FF
