:10800000A5E5E0A523FF000000000000000000003F
:10801000000000000000000000000000FFFFFFFF64
:0C80200041737369676E6D656E74320009
:01200B0032A2
:1080400090F8037480F0D2AFD2A9758901758C3D88
:10805000758ADC79017A017C01D28C782090F80055
:028060007D8021
:0B8063000000D8FE782090F8007D009F
:10806F00D8FE80E8758C3D758ADCD919DC20DA38AA
:10807F00740075F002F59090F800F079097C067A9B
:10808F00127B02804275F002A404F59080397901C9
:10809F0075F002A404ADF0BD010890F8007403F070
:1080AF00802590F800F0801F79017C01758C947504
:1080BF008A30DB13758C3D758ADC7B02E590F4F515
:0880CF009090F800F0800022FF
:00000001FF
