:10800000A5E5E0A523FF000000000000000000003F
:10801000000000000000000000000000FFFFFFFF64
:0C80200041737369676E6D656E74340007
:1080400090F8037480F011DA11DA11DA11DA90FE87
:10805000007430F011DA90FE007430F011DA90FE06
:10806000007430F011DA90FE007420F011DA7428F8
:1080700011B711C0740F11B7741011B7748011B714
:10808000740611B77B147C021193B41B0221228069
:10809000F7212212003211CA90FE02F0C4F0C4C0CF
:1080A000E011A6D0E022DB0E7B1474C011B7DC0611
:1080B0007C02748011B72211CA90FE00F0C4F02235
:1080C000740111B722740211B722C0E090FE01E0E2
:1080D00030E703E080F9E0D0E022782D795AD8FE2D
:1080E000782DD9FA227879793A7A12D8FE7879D926
:1080F000FA793ADAF622785879B27AC8D8FE7858FE
:10810000D9FA79B2DAF622784B794B7A4BD8FE78E5
:108110004BD9FA794BDAF62211CA90FE027443F079
:02812000C4F0A9
:00000001FF
