:10800000A5E5E0A523FF000000000000000000003F
:10801000000000000000000000000000FFFFFFFF64
:0E80200041737369676E6D656E74345633007C
:042003001280CD3248
:04200B0012816B32A1
:042023001280E23213
:1080400090F8037480F0D2AFD2ACD2A9D2A8D2BC3F
:10805000D2B8C2B9758921759850758DFA758B00A3
:10806000758C3D758ADC53877FC299C298C2B43142
:108070003A313A313A313A90FE007430F0313A9068
:10808000FE007430F0313A90FE007430F0313A90D6
:10809000FE007420F0313A742831173120740F310A
:1080A00017741031177480311774063117D28C7D14
:1080B0000079017A017C017E017F01D28E7820D285
:1080C000900000D8FE7820C290D8FE80F0C0E0C0BA
:1080D00082C08312812A1281207D00D083D082D079
:1080E000E022C0E0C082C08311F1D083D082D0E012
:1080F00022C299C298E599312A90FE02F0C4F0316B
:108100000222BD130674C031170D22BD27077480EB
:1081100031177D00220D22312A90FE00F0C4F0229A
:1081200074013117227402311722C0E090FE01E081
:1081300030E703E080F9E0D0E022782D795AD8FECC
:10814000782DD9FA227879793A7A12D8FE7879D9C5
:10815000FA793ADAF622785879B27AC8D8FE78589D
:10816000D9FA79B2DAF62221F04115758C3D758A7B
:10817000DCD91FDC48DA57DFEEDEEE740090F80041
:10818000F090F801F079067C037A137B017F047E7E
:108190000522B9050A75F002A40490F800F02275D2
:1081A000F002A40475F002A40490F800F0C006AE3A
:1081B000F0BE010690F8017401F0D0062279017535
:1081C000F002A40475F002A40490F801F0227901F1
:1081D0007C01758C94758A30DB62758C3D758ADC08
:1081E0007B0290F800E0F490F800F090F801F022A3
:1081F00079017C017A01B4000D74FF90F800F074ED
:108200001F90F801F0221475F002841475F00284B6
:1082100090F801F02279017C017A017F011475F058
:108220000284B4000D90F8017400F090F800747F9F
:10823000F0221475F0028490F800F02222312A9086
:0D824000FE027443F0C4F0B41B0302823C44
:00000001FF
