:10800000A5E5E0A523FF000000000000000000003F
:10801000000000000000000000000000FFFFFFFF64
:0E80200041737369676E6D656E74345632007D
:0B2003001280FA1280F07B147C023285
:01201B003292
:042023001280B53240
:1080400090F8037480F0D2AFD2ACD2A875892075B5
:108050009850758DFA758B0053877FC299C298C26C
:10806000B4D28E310A310A310A310A90FE007430DE
:10807000F0310A90FE007430F0310A90FE00743046
:10808000F0310A90FE007420F0310A742811E711D3
:10809000F0740F11E7741011E7748011E774061182
:1080A000E77B147C027804D2900000D8FE7804C2EA
:1080B00090D8FE80F011C0758DFA758B0022215882
:1080C000C299C298E59911FA90FE02F0C4F0C4C0BA
:1080D000E011D6D0E022DB0E7B1474C011E7DC0681
:1080E0007C02748011E72211FA90FE00F0C4F022A5
:1080F000740111E722740211E722C0E090FE01E052
:1081000030E703E080F9E0D0E022782D795AD8FEFC
:10811000782DD9FA227879793A7A12D8FE7879D9F5
:10812000FA793ADAF622785879B27AC8D8FE7858CD
:10813000D9FA79B2DAF622784B794B7A4BD8FE78B5
:108140004BD9FA794BDAF62211FA90FE027443F019
:08815000C4F0B41B03028158C6
:00000001FF
