:10800000A5E5E0A523FF000000000000000000003F
:10801000000000000000000000000000FFFFFFFF64
:0C80200041737369676E6D656E74330008
:1080400090F8037480F078C879C8D8FE78C8D9FA57
:1080500090FE007430F0782D792DD8FE782DD9FA65
:1080600090FE007430F078FAD8FE90FE007430F084
:10807000782D792DD8FE782DD9FA11D890FE00747C
:1080800020F090FE007402F090FE007408F011D809
:1080900090FE007400F090FE00740CF011D890FE79
:1080A000007401F090FE00740CF011D890FE007482
:1080B00008F090FE007400F011D890FE007400F0FB
:1080C00090FE007406F011E411D890FE027404F0E2
:1080D00090FE027403F0802490FE01E030E703E09C
:1080E00080F9E02211D890FE007400F090FE007438
:0C80F00001F02211D890FE007402F02272
:00000001FF
